{
	"data": {
		"bytecode": {
			"linkReferences": {},
			"object": "608060405260145f553480156012575f80fd5b50610101806100205f395ff3fe6080604052348015600e575f80fd5b5060043610603a575f3560e01c80633885001d14603e578063ee431b4c146058578063f474009f146072575b5f80fd5b6044608c565b604051604f919060b4565b60405180910390f35b605e6094565b6040516069919060b4565b60405180910390f35b60786099565b6040516083919060b4565b60405180910390f35b5f8054905090565b5f5481565b600a81565b5f819050919050565b60ae81609e565b82525050565b5f60208201905060c55f83018460a7565b9291505056fea2646970667358221220a80488d01cde1de62c1b4207b7a81d2bb472cc57bc0d07b2ded3d7d5e1ef11d264736f6c634300081a0033",
			"opcodes": "PUSH1 0x80 PUSH1 0x40 MSTORE PUSH1 0x14 PUSH0 SSTORE CALLVALUE DUP1 ISZERO PUSH1 0x12 JUMPI PUSH0 DUP1 REVERT JUMPDEST POP PUSH2 0x101 DUP1 PUSH2 0x20 PUSH0 CODECOPY PUSH0 RETURN INVALID PUSH1 0x80 PUSH1 0x40 MSTORE CALLVALUE DUP1 ISZERO PUSH1 0xE JUMPI PUSH0 DUP1 REVERT JUMPDEST POP PUSH1 0x4 CALLDATASIZE LT PUSH1 0x3A JUMPI PUSH0 CALLDATALOAD PUSH1 0xE0 SHR DUP1 PUSH4 0x3885001D EQ PUSH1 0x3E JUMPI DUP1 PUSH4 0xEE431B4C EQ PUSH1 0x58 JUMPI DUP1 PUSH4 0xF474009F EQ PUSH1 0x72 JUMPI JUMPDEST PUSH0 DUP1 REVERT JUMPDEST PUSH1 0x44 PUSH1 0x8C JUMP JUMPDEST PUSH1 0x40 MLOAD PUSH1 0x4F SWAP2 SWAP1 PUSH1 0xB4 JUMP JUMPDEST PUSH1 0x40 MLOAD DUP1 SWAP2 SUB SWAP1 RETURN JUMPDEST PUSH1 0x5E PUSH1 0x94 JUMP JUMPDEST PUSH1 0x40 MLOAD PUSH1 0x69 SWAP2 SWAP1 PUSH1 0xB4 JUMP JUMPDEST PUSH1 0x40 MLOAD DUP1 SWAP2 SUB SWAP1 RETURN JUMPDEST PUSH1 0x78 PUSH1 0x99 JUMP JUMPDEST PUSH1 0x40 MLOAD PUSH1 0x83 SWAP2 SWAP1 PUSH1 0xB4 JUMP JUMPDEST PUSH1 0x40 MLOAD DUP1 SWAP2 SUB SWAP1 RETURN JUMPDEST PUSH0 DUP1 SLOAD SWAP1 POP SWAP1 JUMP JUMPDEST PUSH0 SLOAD DUP2 JUMP JUMPDEST PUSH1 0xA DUP2 JUMP JUMPDEST PUSH0 DUP2 SWAP1 POP SWAP2 SWAP1 POP JUMP JUMPDEST PUSH1 0xAE DUP2 PUSH1 0x9E JUMP JUMPDEST DUP3 MSTORE POP POP JUMP JUMPDEST PUSH0 PUSH1 0x20 DUP3 ADD SWAP1 POP PUSH1 0xC5 PUSH0 DUP4 ADD DUP5 PUSH1 0xA7 JUMP JUMPDEST SWAP3 SWAP2 POP POP JUMP INVALID LOG2 PUSH5 0x6970667358 0x22 SLT KECCAK256 0xA8 DIV DUP9 0xD0 SHR 0xDE SAR 0xE6 0x2C SHL TIMESTAMP SMOD 0xB7 0xA8 SAR 0x2B 0xB4 PUSH19 0xCC57BC0D07B2DED3D7D5E1EF11D264736F6C63 NUMBER STOP ADDMOD BYTE STOP CALLER "
		},
		"gasEstimates": {
			"creation": {
				"codeDepositCost": "51400",
				"executionCost": "22208",
				"totalCost": "73608"
			},
			"external": {
				"constUinteger()": "347",
				"uinteger()": "2424",
				"unint()": "2410"
			}
		},
		"methodIdentifiers": {
			"constUinteger()": "f474009f",
			"uinteger()": "ee431b4c",
			"unint()": "3885001d"
		}
	},
	"abi": [
		{
			"inputs": [],
			"name": "constUinteger",
			"outputs": [
				{
					"internalType": "uint256",
					"name": "",
					"type": "uint256"
				}
			],
			"stateMutability": "view",
			"type": "function"
		},
		{
			"inputs": [],
			"name": "uinteger",
			"outputs": [
				{
					"internalType": "uint256",
					"name": "",
					"type": "uint256"
				}
			],
			"stateMutability": "view",
			"type": "function"
		},
		{
			"inputs": [],
			"name": "unint",
			"outputs": [
				{
					"internalType": "uint256",
					"name": "",
					"type": "uint256"
				}
			],
			"stateMutability": "view",
			"type": "function"
		}
	]
}