{
	"06-GlobalVariables/GlobalVariable.sol": {
		"GlobalVariable": {
			"abi": [
				{
					"inputs": [],
					"name": "globalFunc",
					"outputs": [
						{
							"internalType": "address",
							"name": "",
							"type": "address"
						},
						{
							"internalType": "uint256",
							"name": "",
							"type": "uint256"
						},
						{
							"internalType": "uint256",
							"name": "",
							"type": "uint256"
						}
					],
					"stateMutability": "view",
					"type": "function"
				}
			],
			"devdoc": {
				"kind": "dev",
				"methods": {},
				"version": 1
			},
			"evm": {
				"assembly": "    /* \"06-GlobalVariables/GlobalVariable.sol\":60:809  contract GlobalVariable {... */\n  mstore(0x40, 0x80)\n  callvalue\n  dup1\n  iszero\n  tag_1\n  jumpi\n  0x00\n  dup1\n  revert\ntag_1:\n  pop\n  dataSize(sub_0)\n  dup1\n  dataOffset(sub_0)\n  0x00\n  codecopy\n  0x00\n  return\nstop\n\nsub_0: assembly {\n        /* \"06-GlobalVariables/GlobalVariable.sol\":60:809  contract GlobalVariable {... */\n      mstore(0x40, 0x80)\n      callvalue\n      dup1\n      iszero\n      tag_1\n      jumpi\n      0x00\n      dup1\n      revert\n    tag_1:\n      pop\n      jumpi(tag_2, lt(calldatasize, 0x04))\n      shr(0xe0, calldataload(0x00))\n      dup1\n      0x904ff865\n      eq\n      tag_3\n      jumpi\n    tag_2:\n      0x00\n      dup1\n      revert\n        /* \"06-GlobalVariables/GlobalVariable.sol\":198:806  function globalFunc() external view returns (address, uint, uint) {... */\n    tag_3:\n      tag_4\n      tag_5\n      jump\t// in\n    tag_4:\n      mload(0x40)\n      tag_6\n      swap4\n      swap3\n      swap2\n      swap1\n      tag_7\n      jump\t// in\n    tag_6:\n      mload(0x40)\n      dup1\n      swap2\n      sub\n      swap1\n      return\n    tag_5:\n        /* \"06-GlobalVariables/GlobalVariable.sol\":243:250  address */\n      0x00\n        /* \"06-GlobalVariables/GlobalVariable.sol\":252:256  uint */\n      dup1\n        /* \"06-GlobalVariables/GlobalVariable.sol\":258:262  uint */\n      0x00\n        /* \"06-GlobalVariables/GlobalVariable.sol\":377:391  address sender */\n      dup1\n        /* \"06-GlobalVariables/GlobalVariable.sol\":394:404  msg.sender */\n      caller\n        /* \"06-GlobalVariables/GlobalVariable.sol\":377:404  address sender = msg.sender */\n      swap1\n      pop\n        /* \"06-GlobalVariables/GlobalVariable.sol\":543:557  uint timestamp */\n      0x00\n        /* \"06-GlobalVariables/GlobalVariable.sol\":560:575  block.timestamp */\n      timestamp\n        /* \"06-GlobalVariables/GlobalVariable.sol\":543:575  uint timestamp = block.timestamp */\n      swap1\n      pop\n        /* \"06-GlobalVariables/GlobalVariable.sol\":682:698  uint blockNumber */\n      0x00\n        /* \"06-GlobalVariables/GlobalVariable.sol\":701:713  block.number */\n      number\n        /* \"06-GlobalVariables/GlobalVariable.sol\":682:713  uint blockNumber = block.number */\n      swap1\n      pop\n        /* \"06-GlobalVariables/GlobalVariable.sol\":766:772  sender */\n      dup3\n        /* \"06-GlobalVariables/GlobalVariable.sol\":774:783  timestamp */\n      dup3\n        /* \"06-GlobalVariables/GlobalVariable.sol\":785:796  blockNumber */\n      dup3\n        /* \"06-GlobalVariables/GlobalVariable.sol\":758:797  return (sender, timestamp, blockNumber) */\n      swap6\n      pop\n      swap6\n      pop\n      swap6\n      pop\n      pop\n      pop\n      pop\n        /* \"06-GlobalVariables/GlobalVariable.sol\":198:806  function globalFunc() external view returns (address, uint, uint) {... */\n      swap1\n      swap2\n      swap3\n      jump\t// out\n        /* \"#utility.yul\":7:133   */\n    tag_9:\n        /* \"#utility.yul\":44:51   */\n      0x00\n        /* \"#utility.yul\":84:126   */\n      0xffffffffffffffffffffffffffffffffffffffff\n        /* \"#utility.yul\":77:82   */\n      dup3\n        /* \"#utility.yul\":73:127   */\n      and\n        /* \"#utility.yul\":62:127   */\n      swap1\n      pop\n        /* \"#utility.yul\":7:133   */\n      swap2\n      swap1\n      pop\n      jump\t// out\n        /* \"#utility.yul\":139:235   */\n    tag_10:\n        /* \"#utility.yul\":176:183   */\n      0x00\n        /* \"#utility.yul\":205:229   */\n      tag_17\n        /* \"#utility.yul\":223:228   */\n      dup3\n        /* \"#utility.yul\":205:229   */\n      tag_9\n      jump\t// in\n    tag_17:\n        /* \"#utility.yul\":194:229   */\n      swap1\n      pop\n        /* \"#utility.yul\":139:235   */\n      swap2\n      swap1\n      pop\n      jump\t// out\n        /* \"#utility.yul\":241:359   */\n    tag_11:\n        /* \"#utility.yul\":328:352   */\n      tag_19\n        /* \"#utility.yul\":346:351   */\n      dup2\n        /* \"#utility.yul\":328:352   */\n      tag_10\n      jump\t// in\n    tag_19:\n        /* \"#utility.yul\":323:326   */\n      dup3\n        /* \"#utility.yul\":316:353   */\n      mstore\n        /* \"#utility.yul\":241:359   */\n      pop\n      pop\n      jump\t// out\n        /* \"#utility.yul\":365:442   */\n    tag_12:\n        /* \"#utility.yul\":402:409   */\n      0x00\n        /* \"#utility.yul\":431:436   */\n      dup2\n        /* \"#utility.yul\":420:436   */\n      swap1\n      pop\n        /* \"#utility.yul\":365:442   */\n      swap2\n      swap1\n      pop\n      jump\t// out\n        /* \"#utility.yul\":448:566   */\n    tag_13:\n        /* \"#utility.yul\":535:559   */\n      tag_22\n        /* \"#utility.yul\":553:558   */\n      dup2\n        /* \"#utility.yul\":535:559   */\n      tag_12\n      jump\t// in\n    tag_22:\n        /* \"#utility.yul\":530:533   */\n      dup3\n        /* \"#utility.yul\":523:560   */\n      mstore\n        /* \"#utility.yul\":448:566   */\n      pop\n      pop\n      jump\t// out\n        /* \"#utility.yul\":572:1014   */\n    tag_7:\n        /* \"#utility.yul\":721:725   */\n      0x00\n        /* \"#utility.yul\":759:761   */\n      0x60\n        /* \"#utility.yul\":748:757   */\n      dup3\n        /* \"#utility.yul\":744:762   */\n      add\n        /* \"#utility.yul\":736:762   */\n      swap1\n      pop\n        /* \"#utility.yul\":772:843   */\n      tag_24\n        /* \"#utility.yul\":840:841   */\n      0x00\n        /* \"#utility.yul\":829:838   */\n      dup4\n        /* \"#utility.yul\":825:842   */\n      add\n        /* \"#utility.yul\":816:822   */\n      dup7\n        /* \"#utility.yul\":772:843   */\n      tag_11\n      jump\t// in\n    tag_24:\n        /* \"#utility.yul\":853:925   */\n      tag_25\n        /* \"#utility.yul\":921:923   */\n      0x20\n        /* \"#utility.yul\":910:919   */\n      dup4\n        /* \"#utility.yul\":906:924   */\n      add\n        /* \"#utility.yul\":897:903   */\n      dup6\n        /* \"#utility.yul\":853:925   */\n      tag_13\n      jump\t// in\n    tag_25:\n        /* \"#utility.yul\":935:1007   */\n      tag_26\n        /* \"#utility.yul\":1003:1005   */\n      0x40\n        /* \"#utility.yul\":992:1001   */\n      dup4\n        /* \"#utility.yul\":988:1006   */\n      add\n        /* \"#utility.yul\":979:985   */\n      dup5\n        /* \"#utility.yul\":935:1007   */\n      tag_13\n      jump\t// in\n    tag_26:\n        /* \"#utility.yul\":572:1014   */\n      swap5\n      swap4\n      pop\n      pop\n      pop\n      pop\n      jump\t// out\n\n    auxdata: 0xa2646970667358221220cabc21fd00fea52d4bbae9db79dd766bcef8aa734fedede91355bbbfd8ada8c664736f6c634300081a0033\n}\n",
				"bytecode": {
					"linkReferences": {},
					"object": "6080604052348015600e575f80fd5b5061011c8061001c5f395ff3fe6080604052348015600e575f80fd5b50600436106026575f3560e01c8063904ff86514602a575b5f80fd5b60306046565b604051603d9392919060b7565b60405180910390f35b5f805f803390505f4290505f439050828282955095509550505050909192565b5f73ffffffffffffffffffffffffffffffffffffffff82169050919050565b5f608d826066565b9050919050565b609b816085565b82525050565b5f819050919050565b60b18160a1565b82525050565b5f60608201905060c85f8301866094565b60d3602083018560aa565b60de604083018460aa565b94935050505056fea2646970667358221220cabc21fd00fea52d4bbae9db79dd766bcef8aa734fedede91355bbbfd8ada8c664736f6c634300081a0033",
					"opcodes": "PUSH1 0x80 PUSH1 0x40 MSTORE CALLVALUE DUP1 ISZERO PUSH1 0xE JUMPI PUSH0 DUP1 REVERT JUMPDEST POP PUSH2 0x11C DUP1 PUSH2 0x1C PUSH0 CODECOPY PUSH0 RETURN INVALID PUSH1 0x80 PUSH1 0x40 MSTORE CALLVALUE DUP1 ISZERO PUSH1 0xE JUMPI PUSH0 DUP1 REVERT JUMPDEST POP PUSH1 0x4 CALLDATASIZE LT PUSH1 0x26 JUMPI PUSH0 CALLDATALOAD PUSH1 0xE0 SHR DUP1 PUSH4 0x904FF865 EQ PUSH1 0x2A JUMPI JUMPDEST PUSH0 DUP1 REVERT JUMPDEST PUSH1 0x30 PUSH1 0x46 JUMP JUMPDEST PUSH1 0x40 MLOAD PUSH1 0x3D SWAP4 SWAP3 SWAP2 SWAP1 PUSH1 0xB7 JUMP JUMPDEST PUSH1 0x40 MLOAD DUP1 SWAP2 SUB SWAP1 RETURN JUMPDEST PUSH0 DUP1 PUSH0 DUP1 CALLER SWAP1 POP PUSH0 TIMESTAMP SWAP1 POP PUSH0 NUMBER SWAP1 POP DUP3 DUP3 DUP3 SWAP6 POP SWAP6 POP SWAP6 POP POP POP POP SWAP1 SWAP2 SWAP3 JUMP JUMPDEST PUSH0 PUSH20 0xFFFFFFFFFFFFFFFFFFFFFFFFFFFFFFFFFFFFFFFF DUP3 AND SWAP1 POP SWAP2 SWAP1 POP JUMP JUMPDEST PUSH0 PUSH1 0x8D DUP3 PUSH1 0x66 JUMP JUMPDEST SWAP1 POP SWAP2 SWAP1 POP JUMP JUMPDEST PUSH1 0x9B DUP2 PUSH1 0x85 JUMP JUMPDEST DUP3 MSTORE POP POP JUMP JUMPDEST PUSH0 DUP2 SWAP1 POP SWAP2 SWAP1 POP JUMP JUMPDEST PUSH1 0xB1 DUP2 PUSH1 0xA1 JUMP JUMPDEST DUP3 MSTORE POP POP JUMP JUMPDEST PUSH0 PUSH1 0x60 DUP3 ADD SWAP1 POP PUSH1 0xC8 PUSH0 DUP4 ADD DUP7 PUSH1 0x94 JUMP JUMPDEST PUSH1 0xD3 PUSH1 0x20 DUP4 ADD DUP6 PUSH1 0xAA JUMP JUMPDEST PUSH1 0xDE PUSH1 0x40 DUP4 ADD DUP5 PUSH1 0xAA JUMP JUMPDEST SWAP5 SWAP4 POP POP POP POP JUMP INVALID LOG2 PUSH5 0x6970667358 0x22 SLT KECCAK256 0xCA 0xBC 0x21 REVERT STOP INVALID 0xA5 0x2D 0x4B 0xBA 0xE9 0xDB PUSH26 0xDD766BCEF8AA734FEDEDE91355BBBFD8ADA8C664736F6C634300 ADDMOD BYTE STOP CALLER "
				},
				"gasEstimates": {
					"creation": {
						"codeDepositCost": "56800",
						"executionCost": "103",
						"totalCost": "56903"
					},
					"external": {
						"globalFunc()": "infinite"
					}
				},
				"methodIdentifiers": {
					"globalFunc()": "904ff865"
				}
			},
			"storageLayout": {
				"storage": [],
				"types": null
			},
			"userdoc": {
				"kind": "user",
				"methods": {},
				"version": 1
			}
		}
	}
}